:100000000C9473000C949B000C949B000C949B002C
:100010000C949B000C949B000C949B000C949B00F4
:100020000C949B000C949B000C949B000C949B00E4
:100030000C949B000C949B000C949B000C949B00D4
:100040000C9472070C949B000C94E7010C94C10172
:100050000C949B000C949B000C949B000C949B00B4
:100060000C949B000C949B00005EBCE2613FDD831E
:10007000C29C7E20A3FD1F41009D23BE46DB65F888
:100080008C11AF32CA57E974000000080002010069
:100090000003040700000000000000000000000052
:1000A00023002600290001020408102040800102DC
:1000B00004081020010204081020000000002500A0
:1000C00028002B00040404040404040402020202B5
:1000D00002020303030303030000000024002700BF
:1000E0002A00410D290D11241FBECFEFD8E0DEBF3D
:1000F000CDBF11E0A0E0B1E0E0E8F3E202C005907E
:100100000D92A43BB107D9F723E0A4EBB1E001C005
:100110001D92A632B207E1F710E0C2E7D0E004C0BA
:100120002197FE010E94B60EC137D107C9F70E9480
:10013000BC070C94B3110C940000CF92DF92EF92A5
:10014000FF920F931F93CF93DF936C017A018B0182
:10015000C0E0D0E0CE15DF0581F0D8016D918D01B2
:10016000D601ED91FC910190F081E02DC601099539
:10017000892B11F02196EECF7E01C701DF91CF913F
:100180001F910F91FF90EF90DF90CF900895089509
:1001900080E090E00895FC01538D448D252F30E0E0
:1001A000842F90E0821B930B541710F0CF96089584
:1001B00001970895FC01918D828D981761F0828DD1
:1001C000DF01A80FB11D5D968C91928D9F5F9F738B
:1001D000928F90E008958FEF9FEF0895FC01918D2D
:1001E000828D981731F0828DE80FF11D858D90E09A
:1001F00008958FEF9FEF0895FC01918D228D892F37
:1002000090E0805C9F4F821B91098F73992708951E
:1002100088EB91E00E94FC0021E0892B09F420E0AA
:10022000822F0895FC01848DDF01A80FB11DA35A10
:10023000BF4F2C91848D90E001968F739927848F06
:10024000A689B7892C93A089B1898C918370806429
:100250008C93938D848D981306C00288F389E02DCA
:1002600080818F7D80830895EF92FF920F931F937B
:10027000CF93DF93EC0181E0888F9B8D8C8D981359
:1002800005C0E889F989808185FD26C0F62E0B8D91
:1002900010E00F5F1F4F0F731127E02E8C8DE812B7
:1002A0000CC00FB607FCFACFE889F989808185FF79
:1002B000F5CFCE010E941201F1CF8B8DFE01E80F28
:1002C000F11DE35AFF4FF0829FB7F8940B8FEA8934
:1002D000FB89808180620AC09FB7F894EE89FF890C
:1002E0006083E889F98980818370806480839FBFFF
:1002F00081E090E0DF91CF911F910F91FF90EF90FF
:100300000895CF93DF93EC01888D8823C9F0EA89A3
:10031000FB89808185FD05C0A889B9898C9186FDFE
:100320000FC00FB607FCF5CF808185FFF2CFA889FB
:10033000B9898C9185FFEDCFCE010E941201E7CFE4
:10034000DF91CF91089580E090E0892B29F00E9401
:10035000080181110C9400000895362FE42F422FDC
:1003600050E060E070E05E2B632B0E94EF030E9480
:100370000E0364EF71E080E090E00C9438070E9477
:10038000AE111F920F920FB60F9211242F933F932D
:100390004F935F936F937F938F939F93AF93BF938D
:1003A000EF93FF9388EB91E00E941201FF91EF9190
:1003B000BF91AF919F918F917F916F915F914F917D
:1003C0003F912F910F900FBE0F901F9018951F9285
:1003D0000F920FB60F9211242F938F939F93EF9349
:1003E000FF93E091C801F091C9018081E091CE01B5
:1003F000F091CF0182FD12C090818091D1018F5F79
:100400008F732091D201821751F0E091D101F0E079
:10041000E854FE4F958F8093D10101C08081FF91F8
:10042000EF919F918F912F910F900FBE0F901F9082
:100430001895DC0180E0615098F02D91982F92275B
:10044000E92FEF70F0E0E859FF4F249192959F70EB
:10045000E92FF0E0E858FF4FE491822F8E27EBCF91
:100460000895FC0190810180F281E02DF894818152
:10047000892B81832281892F809528232283A7E0DD
:10048000B0E01197F1F7218182238183A3E2B0E0EC
:100490001197F1F780817894EFECF0E03197F1F764
:1004A000982381E009F480E00895FC0190810180A7
:1004B000F281E02D892F809560FF12C0F89422818F
:1004C000822382838181892B8183A3E2B0E011970B
:1004D000F1F78281982B9283789487ED90E011C098
:1004E000F8942281822382838181892B8183AFEFDB
:1004F000B0E01197F1F78281982B928378948FE086
:1005000090E00197F1F70895DF92EF92FF920F9339
:100510001F93CF93DF93EC01D62EE42E08E010E07A
:10052000FF24F39461E08D2D8F2109F460E0CE016A
:100530000E945502FF0C01501109A1F7E11010C0F3
:10054000F894E981FA81918188818095892381835A
:10055000E981FA81928188818095892382837894C8
:10056000DF91CF911F910F91FF90EF90DF90089551
:10057000EF92FF920F931F93CF93DF938C017B0138
:1005800040E065E50E948402E70188E0E80EF11C86
:10059000699140E0C8010E948402CE15DF05C1F7D1
:1005A000DF91CF911F910F91FF90EF900895DC01A3
:1005B0002C911196ED91FC911297F8948181922FD4
:1005C00090958923818378948DE743E050E08150B2
:1005D00021F1DA011197F1F730813223C1F3F89458
:1005E0008281892382838181822B81837894ABE706
:1005F000B7E01197F1F7F89481819823918383E113
:1006000091E00197F1F78081282381E009F080E0F3
:100610007894E3E6F6E03197F1F70895CF92DF9210
:10062000EF92FF920F931F93CF93DF93CDB7DEB777
:1006300029970FB6F894DEBF0FBECDBF809174022C
:1006400090917502892B09F4BBC0C0907A02D090BA
:100650007B02E0907C02F0907D020E9413076C15F3
:100660007D058E059F0550F40E94130760937A0262
:1006700070937B0280937C0290937D020E9413070B
:1006800000917A0210917B0220917C0230917D02D0
:10069000DC01CB01801B910BA20BB30B8C32914080
:1006A000A105B10590F2F89480916F0290917002CB
:1006B0009A838983E0917402F0917502DF011196AB
:1006C0008081898790916B02E0917E02F0917F0298
:1006D00080918002992309F42EC09081982B9887ED
:1006E0009081809589238F838F818C8388E08B8391
:1006F00058856F8149853B812C8189819A815083FE
:1007000047FD252F3A952083262F39F0441F00C03E
:1007100000006083000000C0F2CF38E04D9160839C
:100720000000019761F7F0937F02E0937E02498712
:100730003B832C8338C09081982B9887908180953B
:1007400089238F838F818E8388E08D8358856F8185
:1007500049853D812E8189819A81508347FD252FCE
:1007600000C000C0208300C000C000C000C000C0A6
:1007700060830000262F3A9541F0441F000000C01E
:1007800000C000C000C000C0E8CF38E04D9100C0FC
:10079000608300C0019709F7F0937F02E0937E0227
:1007A00049873D832E839A83898378940E94130717
:1007B00060937A0270937B0280937C0290937D0217
:1007C00029960FB6F894DEBF0FBECDBFDF91CF9153
:1007D0001F910F91FF90EF90DF90CF9008958F922F
:1007E0009F92AF92BF92CF92DF92EF92FF92CF9300
:1007F000DF9320916D0230916E028217930708F00B
:1008000057C04B01AA24BB24F82DC52ED62EE72EA7
:10081000FF24AC2DE42F20917302222361F0829EED
:1008200040011124F92D2C9D60011124AD2D249F30
:10083000E0011124ED2F30917902B0917602E09021
:100840007402F09075023B1308C09C01220F331F05
:10085000820F931F8E0D9F1D19C0880F991F880F3F
:10086000991F8E0D9F1D472F552766277727EC016F
:10087000C30FD11D222349F030E0249F7001259F32
:10088000F00C349FF00C11244F2D488320917602F8
:10089000EC01C20FD11DF88320917702EC01C20F49
:1008A000D11DA88320917802DC01A20FB11DEC9329
:1008B000DF91CF91FF90EF90DF90CF90BF90AF90FE
:1008C0009F908F9008950F931F93CF93DF9304E031
:1008D00013E060E0F80180810E94A806C5E0D3E043
:1008E00060E088810E94A80661E0F80180810E9492
:1008F000A80683E090E00197F1F761E08881DF913D
:10090000CF911F910F910C94A8060F931F93CF9333
:10091000DF93D82FC8E007E010E060E08091040387
:100920000E94A8066D2F6170809105030E94A806A1
:10093000C8010197F1F761E0809104030E94A806C5
:10094000C8010197F1F7D695C15039F760E0809161
:1009500004030E94A80661E0809105030E94A80696
:1009600061E0809104030E94A80660E08091050385
:100970000E94D7062091050330E0F901E857FF4FA8
:100980008491F901EA55FF4FD491F901EC53FF4FDF
:10099000C491CC2399F081110E947F06EC2FF0E0E6
:1009A000EE0FFF1FE456FF4FA591B491EC91ED239C
:1009B000C1E009F4C0E0C1110CC001C0C0E060E0BA
:1009C000809105030E94D70660E0809105030E9494
:1009D000A80661E0809105030E94D7068C2FDF9165
:1009E000CF911F910F910895CF93DF9361E0809194
:1009F00004030E94A806C5E0D3E061E088810E945C
:100A0000A80683E090E00197F1F760E08881DF912C
:100A1000CF910C94A8066F927F928F929F92AF9283
:100A2000BF92CF92DF92EF92FF920F931F93CF93DB
:100A3000DF938C01EB0180915D0290915E020E9438
:100A4000D702882309F447C0B80180915D029091D4
:100A50005E020E94B80240E06EEB80915D029091D0
:100A60005E020E9484028E016E0189E0C80ED11CD4
:100A70007E01A0905D02B0905E0288E0882E912CED
:100A8000712C66246394C5010E943102811176287D
:100A9000660CE1E08E1A9108B1F7F70171927F01BF
:100AA000CE16DF0631F780915D0290915E020E94C2
:100AB000D702813081F4F80181918F01811104C046
:100AC000EC15FD05C1F707C068E0CE010E941902D0
:100AD00091E02885281390E0892FDF91CF911F9115
:100AE0000F91FF90EF90DF90CF90BF90AF909F90CD
:100AF0008F907F906F900895CF93DF93CDB7DEB73F
:100B000029970FB6F894DEBF0FBECDBFBE016F5F51
:100B10007F4F0E940B05882389F08D818F3361F010
:100B200020F48F3159F489E00CC08F3519F08F37DC
:100B300039F004C08BE005C08AE003C080E001C04A
:100B40008CE029960FB6F894DEBF0FBECDBFDF91C3
:100B5000CF910895BF92CF92DF92EF92FF920F93C1
:100B60001F93CF93DF93EC016B018D85811105C03D
:100B7000CE010E94D702811105C01B861D861C86EE
:100B800080E060C040E060EFCE010E94840201E09E
:100B9000E12CB12C11E0CE010E943102F82ECE01E1
:100BA0000E94310291E0F91203C08130B1F434C0E7
:100BB0002E2D30E0F8121BC08B85181738F4FE017B
:100BC000E20FF31F8381802341F402C0811729F0D3
:100BD000F12C193058F41C8709C0FE01EE0DF11DEF
:100BE0008381802B8383FF24F39409C0B12EFE01FF
:100BF000E20FF31F9381802F8095892383836F2DCC
:100C0000CE010E9455021F5F000F11F4E39401E032
:100C100087E08E1508F0BFCF113408F4AECFBB8645
:100C2000B11002C081E08D878B81882309F4A5CFA4
:100C3000DE011396F6012B968D918193CA17DB077F
:100C4000D9F781E0DF91CF911F910F91FF90EF9045
:100C5000DF90CF90BF900895009769F0FC0101905C
:100C60000020E9F73197AF01481B590BBC0188EB15
:100C700091E00C949D0080E090E008958F929F9207
:100C8000AF92BF920F931F93CF93DF93CDB7DEB791
:100C9000A1970FB6F894DEBF0FBECDBF19A24230A8
:100CA00008F44AE08E010F5D1F4F842E912CA12C79
:100CB000B12CA50194010E94740EE62FB901CA015E
:100CC00001501109EA3014F4E05D01C0E95CD8017B
:100CD000EC93232B242B252B61F7C8010E942C06B3
:100CE000A1960FB6F894DEBF0FBECDBFDF91CF91B6
:100CF0001F910F91BF90AF909F908F900895833078
:100D000081F028F4813099F08230A1F00895873085
:100D1000A9F08830B9F08430D1F4809180008F7DC3
:100D200003C0809180008F7780938000089584B500
:100D30008F7702C084B58F7D84BD08958091B00007
:100D40008F7703C08091B0008F7D8093B0000895AD
:100D50001F93CF93DF93282F30E0F901E857FF4F1F
:100D60008491F901EA55FF4FD491F901EC53FF4FFB
:100D7000C491CC23C1F0162F81110E947F06EC2F65
:100D8000F0E0EE0FFF1FE654FF4FA591B4919FB71F
:100D9000F894111104C08C91D095D82302C0EC9125
:100DA000DE2BDC939FBFDF91CF911F910895CF93EE
:100DB000DF9390E0FC01EA55FF4F2491FC01EC53D6
:100DC000FF4F8491882361F190E0880F991FFC0107
:100DD000E852FF4FC591D491FC01E654FF4FA59115
:100DE000B491611109C09FB7F8948881209582233E
:100DF0008883EC912E230BC0623061F49FB7F89486
:100E00008881322F309583238883EC912E2B2C936D
:100E10009FBF06C08FB7F894E8812E2B28838FBF21
:100E2000DF91CF9108953FB7F89480911E03909180
:100E30001F03A0912003B091210326B5A89B05C0F4
:100E40002F3F19F00196A11DB11D3FBFBA2FA92F49
:100E5000982F8827820F911DA11DB11DBC01CD01C6
:100E600042E0660F771F881F991F4A95D1F70895B2
:100E70008F929F92AF92BF92CF92DF92EF92FF92AA
:100E80006B017C010E9413074B015C01C114D1046A
:100E9000E104F104F1F00E941307DC01CB01881991
:100EA0009909AA09BB09883E9340A105B10570F3D1
:100EB00021E0C21AD108E108F10888EE880E83E02B
:100EC000981EA11CB11CC114D104E104F10419F74E
:100ED000DDCFFF90EF90DF90CF90BF90AF909F90CD
:100EE0008F9008951F920F920FB60F9211242F9397
:100EF0003F938F939F93AF93BF93809119039091EA
:100F00001A03A0911B03B0911C0330911D0323E031
:100F1000230F2D3720F40196A11DB11D05C026E831
:100F2000230F0296A11DB11D20931D038093190369
:100F300090931A03A0931B03B0931C0380911E038C
:100F400090911F03A0912003B09121030196A11D50
:100F5000B11D80931E0390931F03A0932003B093B1
:100F60002103BF91AF919F918F913F912F910F904E
:100F70000FBE0F901F901895CF93DF93CDB7DEB7BC
:100F800061970FB6F894DEBF0FBECDBF789484B5DD
:100F9000826084BD84B5816084BD85B5826085BD75
:100FA00085B5816085BD80916E00816080936E0003
:100FB00010928100809181008260809381008091F5
:100FC00081008160809381008091800081608093A6
:100FD00080008091B10084608093B1008091B00066
:100FE00081608093B00080917A00846080937A0061
:100FF00080917A00826080937A0080917A0081608B
:1010000080937A0080917A00806880937A001092B1
:10101000C100E091C801F091C90182E08083E091B4
:10102000C401F091C5011082E091C601F091C701A1
:101030008FEC80831092D001E091CC01F091CD0132
:1010400086E08083E091CA01F091CB0180818061CC
:101050008083E091CA01F091CB0180818860808318
:10106000E091CA01F091CB01808180688083E0919A
:10107000CA01F091CB0180818F7D8083E0915D0278
:10108000F0915E02138615861486DF011B96339657
:101090001E92AE17BF07E1F710925B0210925C023E
:1010A00001E0BE016F5F7F4F80915D0290915E0213
:1010B0000E94AA05882309F465C067E0CE01019665
:1010C0000E94190298858913ECCF809155028111F5
:1010D00027C080915D0290915E020E94D702BE01FE
:1010E0006F5F7F4F80915D0290915E020E94B80217
:1010F00040E064EB80915D0290915E020E94840268
:1011000080915D0290915E020E943102182F8091C1
:101110005D0290915E020E94D702112309F4AFC0D4
:10112000109158028981803109F441C4CE010196A1
:101130000E947C05811718F48091580209C08981AA
:10114000803111F48CE004C0CE0101960E947C0530
:101150008093580280915B028F5F80935B0289814C
:10116000883209F48FC038F4803109F48BC08232A0
:1011700009F097CF87C08B3309F484C0823409F01B
:1011800090CF80C0809171029091720297FD08C04B
:1011900061E00E94D70660E0809171020E94A8067B
:1011A00081E080936C0200E010E048E557EC60E3DA
:1011B00070E0C8010E94EF030E940E0364EF71E02B
:1011C00080E090E00E9438070F5F1F4F0630110546
:1011D00061F706E010E040E050E0BA01C8010E946B
:1011E000EF030E940E0364EF71E080E090E00E9444
:1011F00038070150110978F761E0809104030E94DB
:10120000D70661E0809105030E94D7060E94F4048E
:1012100084E40E9485040E9463040E94F40486EC26
:101220000E9485040E9463040E94F40480E80E94E6
:1012300085040E9463048BE8809303031AE0E09125
:101240005D02F0915E02138615861486DF011B96FF
:10125000CF0103961E928A179B07E1F7BE01665FD6
:101260007F4FCF010E94AA05882391F067E0CE014D
:101270000A960E941902998989130AC09CC3009397
:1012800055024ECF80915C028F5F80935C0209CF44
:1012900060E070E08EEF92EC6093B4017093B50162
:1012A0008093B6019093B70180915D0290915E02A8
:1012B0000E94D70240E06CEC80915D0290915E024A
:1012C0000E9484024091550264E480915D029091F5
:1012D0005E020E94840280915902882309F459C059
:1012E000E0915802E950E33040F4F0E0EE0FFF1FC8
:1012F000EA5FFE4F8081918102C08EEE92E06C0128
:10130000990FEE08FF0880915A02882361F18091BD
:101310005502811128C08FB7F894809019039090DE
:101320001A03A0901B03B0901C038FBF80915D0235
:1013300090915E020E943102813059F12FB7F894EA
:101340008091190390911A03A0911B03B0911C0383
:101350002FBF88199909AA09BB098C159D05AE05EF
:10136000BF0520F316C080915602882329F060E063
:10137000809157020E94A806C701B6010E94380753
:1013800080915602882329F061E0809157020E94E3
:10139000A8068EE991E00E942C06C090B401D0907E
:1013A000B501E090B601F090B701A7019601C70121
:1013B000B6010E948810882319F085EA91E01AC0CE
:1013C00046015701E894B7F82FEF3FEF4FE75FE78B
:1013D000C501B4010E94881081110FC02FEF3FEFAB
:1013E0004FE75FE7C501B4010E94290F18162CF4DE
:1013F00089EA91E00E942C0676C02FEF3FEF4FE77D
:101400005FE4C701B6010E94161018161CF48DEA9D
:1014100091E0F0CF2FEF3FEF4FE75FECC701B60150
:101420000E94290F87FDF3CF20E030E0A901C7011A
:10143000B6010E94290F87FF09C06DE288EB91E099
:101440000E943401F7FAF094F7F8F0942AE037EDAF
:1014500043EA5BE3C701B6010E94BD0E4B015C018C
:101460000E94350F6B017C010E94640F9B01AC014F
:10147000C501B4010E94BC0E4B015C014AE0C701EA
:10148000B6010E943E066EE288EB91E00E943401B4
:1014900020E030E040E251E4C501B4010E941B109D
:1014A0004B015C010E94350F6B01E12CF12C4AE0ED
:1014B000C701B6010E943E06C701B6010E94640F33
:1014C0009B01AC01C501B4010E94BC0E20E030E0DC
:1014D00040E251E40E941B100E94350F80E090E032
:1014E0004AE00E943E0681EB91E00E942C06C090EB
:1014F000B401D090B501E090B601F090B70120E0C2
:1015000030E0A901C701B6010E94161020E030E0CA
:1015100040E05FE387FD05C0C701B6010E94BD0E34
:1015200004C0C701B6010E94BC0E0E942E0F6B01C1
:101530007C0197FF0EC06DE288EB91E00E943401C0
:1015400066277727CB016C197D098E099F094AE030
:1015500001C04AE00E943E0681EB91E00E942C0609
:10156000C090B401D090B501E090B601F090B70101
:10157000C701B6010E942E0F862F4091070350E04D
:101580004115510509F475C067FF03C08195A1E0BD
:1015900001C0A0E09A0121503109612F0E94520E32
:1015A000E92F990FFF0BEF57FD4F90A9E09108032A
:1015B000F0910903E20FF31F9083882321F0A90122
:1015C000232B41F718C0AA2371F0232BA1F09A0115
:1015D0002250310980910A03E0910803F091090338
:1015E000E20FF31F8083121613062CF421503109E9
:1015F0008091B102F1CF0091070380900803909091
:1016000009030E94F40480E40E9485040E9463049C
:101610000E94F40480EC0E9485045401812C912CDA
:101620008016E8F480910103F50181110BC08091CF
:10163000020390E0082C02C0969587950A94E2F781
:1016400080FF03C08081806801C080810E94850482
:10165000FFEF8F1A9F0A2FEFA21AB20AE1CF0E9462
:1016600063040E94F404809103030E9485040E9495
:10167000630420E030E040EC51E4C701B6010E9471
:10168000161087FD46C020E030E040EE51E4C7016F
:10169000B6010E94290F1816E4F123EA30E041E870
:1016A00050E062E270E080E090E00E94AD0123EA49
:1016B00030E041E850E062E270E081E090E00E94BA
:1016C000AD0124E130E04BEE50E06FEF70E082E0DE
:1016D00090E00E94AD0124E130E04BEE50E06FEF6E
:1016E00070E083E090E00E94AD012EE030E040EF3A
:1016F00050E06BE370E084E090E00E94AD012EE0EA
:1017000030E040EF50E06BE370E085E090E00E9455
:10171000AD0120E030E040EB51E4C701B6010E948A
:10172000161018160CF046C020E030E040EC51E4F2
:10173000C701B6010E94290F87FF3CC023EA30E0B1
:1017400041E850E062E270E080E090E00E94AD018C
:1017500023EA30E041E850E062E270E081E090E0AE
:101760000E94AD0124E130E04BEE50E06FEF70E0FD
:1017700082E090E00E94AD0124E130E04BEE50E0C9
:101780006FEF70E083E090E00E94AD0120E030E078
:1017900040E050E060E070E084E090E00E94AD0145
:1017A00020E030E040E050E060E070E085E090E074
:1017B0000E94AD0120E030E040EA51E4C701B601EB
:1017C0000E94161018160CF046C020E030E040EBE6
:1017D00051E4C701B6010E94290F1816E4F123EA6B
:1017E00030E041E850E062E270E080E090E00E948A
:1017F000AD0123EA30E041E850E062E270E081E0D0
:1018000090E00E94AD0120E030E040E050E060E078
:1018100070E082E090E00E94AD0120E030E040E026
:1018200050E060E070E083E090E00E94AD0120E0D5
:1018300030E040E050E060E070E084E090E00E9442
:10184000AD0120E030E040E050E060E070E085E095
:1018500090E00E94AD0120E030E040EA51E4C70191
:10186000B6010E94290F18160CF47EC023EA30E05E
:1018700041E850E062E270E080E090E00E94AD015B
:1018800023EA30E041E850E062E270E081E090E07D
:101890000E94AD0123EA30E041E850E062E270E0EE
:1018A00082E090E00E94AD0123EA30E041E850E0A0
:1018B00062E270E083E090E00E94AD0123EA30E054
:1018C00041E850E062E270E084E090E00E94AD0107
:1018D00023EA30E041E850E062E270E085E090E029
:1018E0000E94AD0168EC70E080E090E00E94380753
:1018F00020E030E040E050E06FEF70E080E090E00A
:101900000E94AD0120E030E040E050E06FEF70E079
:1019100081E090E00E94AD0120E030E040E050E046
:101920006FEF70E082E090E00E94AD0120E030E0D7
:1019300040E050E06FEF70E083E090E00E94AD0186
:1019400020E030E040E050E06FEF70E084E090E0B5
:101950000E94AD0120E030E040E050E06FEF70E029
:1019600085E090E00E94AD0120E030E040EE51E4DF
:10197000C701B6010E9416101816B4F486E0E82ECE
:10198000F12C40E050E06FEF70E0C7010E94EF03E0
:1019900041E0E41AF108A8F70E940E0364EF71E039
:1019A00080E090E00E9438070E94A30148CC1D30DF
:1019B00008F0C2CBC7CBBE016F5F7F4FCE010A9646
:1019C0000E940B05882309F441C02A8130E0C90137
:1019D000982F8827990F990F990F698148E0649F84
:1019E000B00111249C01262B372B8A858031D9F434
:1019F00068856623C1F070E08F81FB01E81BF10967
:101A0000CF019695982F8827979587950E94600E0D
:101A100060527109207F53E0220F331F5A95E1F77E
:101A2000620F731F01C0B9016138F4EE7F070CF437
:101A30002FCC072E000C880B990B0E94660F20E01C
:101A400030E040E05CE30E941B1026CC60E874EEBE
:101A5000EBCF80917402909175020E9425118091C4
:101A600071029091720297FD03C060E00E94D70658
:101A70008091080390910903009711F00C942511AF
:101A800008951092BB011092BA0188EE93E0A0E095
:101A9000B0E08093BC019093BD01A093BE01B093D0
:101AA000BF0180E991E09093B9018093B80185EC82
:101AB00090E09093C5018093C40184EC90E09093F2
:101AC000C7018093C60180EC90E09093C901809398
:101AD000C80181EC90E09093CB018093CA0182EC25
:101AE00090E09093CD018093CC0186EC90E09093B0
:101AF000CF018093CE011092D1011092D2011092A9
:101B0000D3011092D40160E08AE00E94D706E0EB96
:101B1000F0E0E491E0930B03EEECF0E0E491F0E010
:101B2000EE0FFF1FE456FF4F8591949190930D03A4
:101B300080930C031092160310921803109217034F
:101B4000E6E1F3E0129283E0EE30F807D9F78BE09C
:101B500093E090935E0280935D0210925B0210927C
:101B60005C021092550289E08093580281E08093D4
:101B7000590280935A0210926A02109269021092DE
:101B8000560280E8ECE0F1E0A1E8B2E001900D92AD
:101B90008A95E1F783E08093040382E08093050354
:101BA00084E08093070380E480930A031092020389
:101BB0008AE8809303031092010384E090E00E947E
:101BC0008D10909309038093080380E090E0E091EA
:101BD0000803F0910903E80FF91F10820196843081
:101BE0009105A9F710926C021092730210927A027A
:101BF00010927B0210927C0210927D0281E0809311
:101C00007902809376021092770292E090937802A4
:101C100080936B0282E190E09093700280936F0258
:101C20000E948D109093750280937402009761F06A
:101C300022E1FC0111922A95E9F786E090E0909369
:101C40006E0280936D0208C01092700210926F02B3
:101C500010926E0210926D028DE090E090937202ED
:101C60008093710280916C02882341F061E08DE0E5
:101C70000E94D70660E08DE00E94A806E1EDF0E04A
:101C8000E491F0E0EE0FFF1FE654FF4F8591949131
:101C900090937F0280937E02E3EBF0E0E491E09387
:101CA0008002089587FB082E062687FD819567FD33
:101CB00061950E94960E0EF4919507FC819508950A
:101CC00097FB072E16F4009407D077FD09D00E94E9
:101CD000A20E07FC05D03EF4909581959F4F089584
:101CE000709561957F4F0895A1E21A2EAA1BBB1B28
:101CF000FD010DC0AA1FBB1FEE1FFF1FA217B307D8
:101D0000E407F50720F0A21BB30BE40BF50B661FED
:101D1000771F881F991F1A9469F7609570958095B1
:101D200090959B01AC01BD01CF010895991B79E00D
:101D300004C0991F961708F0961B881F7A95C9F75B
:101D400080950895AA1BBB1B51E107C0AA1FBB1FAA
:101D5000A617B70710F0A61BB70B881F991F5A9537
:101D6000A9F780959095BC01CD010895EE0FFF1F56
:101D70000590F491E02D09945058BB27AA270E94A2
:101D8000D40E0C94DC0F0E94CE0F38F00E94D50FB9
:101D900020F039F49F3F19F426F40C94CB0F0EF485
:101DA000E095E7FB0C94C50FE92F0E94ED0F58F367
:101DB000BA17620773078407950720F079F4A6F530
:101DC0000C940F100EF4E0950B2EBA2FA02D0B01E2
:101DD000B90190010C01CA01A0011124FF27591B70
:101DE00099F0593F50F4503E68F11A16F040A22F76
:101DF000232F342F4427585FF3CF469537952795E7
:101E0000A795F0405395C9F77EF41F16BA0B620BE5
:101E1000730B840BBAF09150A1F0FF0FBB1F661F2C
:101E2000771F881FC2F70EC0BA0F621F731F841F6F
:101E300048F4879577956795B795F7959E3F08F095
:101E4000B0CF9395880F08F09927EE0F9795879557
:101E500008950E94A10F08F481E008950E94350FB3
:101E60006894B1110C94101008950E94F50F88F039
:101E70009F5798F0B92F9927B751B0F0E1F0660F4E
:101E8000771F881F991F1AF0BA95C9F714C0B1308F
:101E900091F00E940F10B1E008950C940F10672F7D
:101EA000782F8827B85F39F0B93FCCF386957795BE
:101EB0006795B395D9F73EF49095809570956195A7
:101EC0007F4F8F4F9F4F0895E89409C097FB3EF4D2
:101ED00090958095709561957F4F8F4F9F4F992377
:101EE000A9F0F92F96E9BB279395F69587957795F5
:101EF0006795B795F111F8CFFAF4BB0F11F460FFB5
:101F00001BC06F5F7F4F8F4F9F4F16C0882311F00C
:101F100096E911C0772321F09EE8872F762F05C020
:101F2000662371F096E8862F70E060E02AF09A95BB
:101F3000660F771F881FDAF7880F9695879597F9B0
:101F40000895990F0008550FAA0BE0E8FEEF16164A
:101F50001706E807F907C0F012161306E407F5079D
:101F600098F0621B730B840B950B39F40A2661F011
:101F7000232B242B252B21F408950A2609F4A140B4
:101F8000A6958FEF811D811D089597F99F6780E8C1
:101F900070E060E008959FEF80EC089500240A94BB
:101FA0001616170618060906089500240A94121634
:101FB0001306140605060895092E0394000C11F467
:101FC000882352F0BB0F40F4BF2B11F460FF04C014
:101FD0006F5F7F4F8F4F9F4F089557FD9058440F6D
:101FE000551F59F05F3F71F04795880F97FB991F78
:101FF00061F09F3F79F08795089512161306140635
:10200000551FF2CF4695F1DF08C0161617061806C1
:10201000991FF1CF86957105610508940895E8949C
:10202000BB2766277727CB0197F908950E94A10F58
:1020300008F48FEF08950E942E100C94DC0F0E947C
:10204000CE0F38F00E94D50F20F0952311F00C949C
:10205000C50F0C94CB0F11240C9410100E94ED0F9F
:1020600070F3959FC1F3950F50E0551F629FF001EB
:10207000729FBB27F00DB11D639FAA27F00DB11D04
:10208000AA1F649F6627B00DA11D661F829F22278D
:10209000B00DA11D621F739FB00DA11D621F839F14
:1020A000A00D611D221F749F3327A00D611D231FEA
:1020B000849F600D211D822F762F6A2F11249F5738
:1020C00050409AF0F1F088234AF0EE0FFF1FBB1F3B
:1020D000661F771F881F91505040A9F79E3F5105FA
:1020E00080F00C94C50F0C9410105F3FE4F3983E01
:1020F000D4F3869577956795B795F795E7959F5FA4
:10210000C1F7FE2B880F911D9695879597F9089535
:102110000E94A10F880B990B08950F931F93CF93E3
:10212000DF938230910510F482E090E0E091240387
:10213000F091250320E030E0A0E0B0E0309719F105
:10214000408151810281138148175907C8F08417D3
:10215000950769F4109731F012960C931297139625
:102160001C9327C0009324031093250322C021153C
:10217000310519F04217530718F49A01BD01EF0118
:10218000DF01F801DBCF21153105F9F0281B390BF0
:102190002430310580F48A819B816115710521F01D
:1021A000FB019383828304C09093250380932403CF
:1021B000FE01329644C0FE01E20FF31F819391931A
:1021C00022503109398328833AC02091220330916B
:1021D0002303232B41F4209102013091030130931A
:1021E0002303209322032091000130910101211546
:1021F000310541F42DB73EB74091040150910501DE
:10220000241B350BE0912203F0912303E217F3071F
:10221000A0F42E1B3F0B2817390778F0AC014E5F56
:102220005F4F2417350748F04E0F5F1F509323036D
:10223000409322038193919302C0E0E0F0E0CF014C
:10224000DF91CF911F910F910895CF93DF93009766
:1022500009F481C0FC01329713821282A0912403F9
:10226000B0912503109781F420813181820F931F53
:1022700020912203309123032817390751F5F09359
:102280002303E093220367C0ED0120E030E0CE1786
:10229000DF0740F44A815B819E0141155105F1F051
:1022A000EA01F5CFD383C28340815181840F951F0A
:1022B000C817D90759F488819981840F951F029610
:1022C000918380838A819B81938382832115310549
:1022D00029F4F0932503E09324033DC0E901FB8337
:1022E000EA8349915991C40FD51FEC17FD0761F49A
:1022F00080819181840F951F0296E90199838883DB
:10230000828193819B838A83E0E0F0E012968D9135
:102310009C911397009719F0FD01DC01F7CF8D9187
:102320009C9111979D012E5F3F4F820F931F20912B
:102330002203309123032817390769F4309729F4D1
:10234000109225031092240302C013821282B093CC
:102350002303A0932203DF91CF91089581E090E0C1
:10236000F8940C94B31110E0C2E7D0E004C0FE0171
:102370000E94B60E2196C337D107C9F7F894FFCF54
:102380000000260320005E00BC0077010000000072
:10239000000000000000000000000000000000003D
:1023A000000000000000000000000000000022000B
:1023B0006D000020390F0000104080523F065B4F37
:1023C000666D7D077F6F00000048005300777C3901
:1023D0005E79713D76301E003800543F7367506D52
:1023E000783E0000006E5B3964000F0820777C584F
:1023F0005E79713D74041E003800545C7367506D43
:10240000783E0000006E5B39300F40000000000095
:1024100034019D00CB008101FC00DA00EE00546520
:102420006D703A20006E616E00696E66006F7666B0
:04243000000D0A0091
:00000001FF
